:100000000C9462000C948A000C948A000C948A0070
:100010000C948A000C948A000C948A000C948A0038
:100020000C948A000C948A000C948A000C948A0028
:100030000C948A000C948A000C948A000C948A0018
:100040000C94B4040C948A000C9482040C945C0408
:100050000C948A000C948A000C948A000C948A00F8
:100060000C948A000C948A000000000024002700F1
:100070002A0000000000250028002B0000000008D6
:10008000000201000003040700000000000000005F
:1000900000000000230026002900040404040404D6
:1000A0000404020202020202030303030303010227
:1000B00004081020408001020408102001020408F6
:1000C0001020430511241FBECFEFD8E0DEBFCDBF07
:1000D00011E0A0E0B1E0E4E0F1E102C005900D9292
:1000E000A034B107D9F722E0A0E4B1E001C01D922D
:1000F000A630B207E1F710E0C2E6D0E004C02197D5
:10010000FE010E947A08C136D107C9F70E948D0509
:100110000C9480080C940000AF92BF92CF92DF92B3
:10012000EF92FF920F931F93CF93DF936C017B01AC
:100130008B01040F151FEB015E01AE18BF08C0173D
:10014000D10759F06991D601ED91FC910190F081B0
:10015000E02DC6010995892B79F7C501DF91CF9173
:100160001F910F91FF90EF90DF90CF90BF90AF90D5
:100170000895FC01538D448D252F30E0842F90E0AD
:10018000821B930B541710F0CF9608950197089592
:10019000FC01918D828D981761F0A28DAE0FBF2F5B
:1001A000B11D5D968C91928D9F5F9F73928F90E0B1
:1001B00008958FEF9FEF0895FC01918D828D981720
:1001C00031F0828DE80FF11D858D90E008958FEF5D
:1001D0009FEF0895FC01918D228D892F90E0805C26
:1001E0009F4F821B91098F739927089581E591E0B4
:1001F0000E94EA0021E0892B09F420E0822F089573
:1002000080E090E0892B29F00E94F60081110C9487
:1002100000000895FC01A48DA80FB92FB11DA35AA9
:10022000BF4F2C91848D90E001968F739927848F16
:10023000A689B7892C93A089B1898C918370806439
:100240008C93938D848D981306C00288F389E02DDA
:1002500080818F7D80830895EF92FF920F931F938B
:10026000CF93DF93EC0181E0888F9B8D8C8D981369
:100270001AC0E889F989808185FF15C09FB7F89475
:10028000EE89FF896083E889F989808183708064C1
:1002900080839FBF81E090E0DF91CF911F910F910C
:1002A000FF90EF900895F62E0B8D10E00F5F1F4F1B
:1002B0000F731127E02E8C8D8E110CC00FB607FC2A
:1002C000FACFE889F989808185FFF5CFCE010E94B8
:1002D0000A01F1CFEB8DEC0FFD2FF11DE35AFF4F1B
:1002E000F0829FB7F8940B8FEA89FB898081806246
:1002F000CFCFCF93DF93EC01888D8823B9F0AA8903
:10030000BB89E889F9898C9185FD03C0808186FDD0
:100310000DC00FB607FCF7CF8C9185FFF2CF80811F
:1003200085FFEDCFCE010E940A01E9CFDF91CF9189
:10033000089590E0FC01E458FF4F2491FC01E25540
:10034000FF4F3491FC01E656FF4FE491EE23C9F0D4
:10035000222339F0233001F1A8F4213019F12230A1
:1003600029F1F0E0EE0FFF1FEE58FF4FA591B49179
:100370008FB7F894EC91611126C030953E233C93E1
:100380008FBF08952730A9F02830C9F0243049F7ED
:10039000809180008F7D03C0809180008F77809353
:1003A0008000DFCF84B58F7784BDDBCF84B58F7DB0
:1003B000FBCF8091B0008F778093B000D2CF809137
:1003C000B0008F7DF9CF3E2BDACFCF93DF9390E053
:1003D000FC01E255FF4F249186569F4FFC0184910A
:1003E0008823D1F090E0880F991FFC01E859FF4F56
:1003F000A591B491FC01EE58FF4FC591D4916111C4
:100400000EC09FB7F8948C91E22FE0958E238C93C9
:100410002881E223E8839FBFDF91CF9108958FB7B2
:10042000F894EC91E22BEC938FBFF6CF3FB7F894A2
:100430008091450190914601A0914701B0914801FA
:1004400026B5A89B05C02F3F19F00196A11DB11D2F
:100450003FBFBA2FA92F982F8827BC01CD01620F6B
:10046000711D811D911D42E0660F771F881F991F26
:100470004A95D1F708958F929F92AF92BF92CF92F3
:10048000DF92EF92FF924B015C010E9416026B011A
:100490007C010E9416026C197D098E099F09683E35
:1004A000734081059105A8F321E0821A9108A10803
:1004B000B10888EEC80E83E0D81EE11CF11C81143F
:1004C0009104A104B10429F7FF90EF90DF90CF9041
:1004D000BF90AF909F908F900895089590E080E036
:1004E0000895CF93DF93EC0160E08E810E94990123
:1004F00061E08E810E94990160E08E810E949901E5
:100500008BE891E00197F1F7DF91CF910895CF92B9
:10051000DF92EF92FF920F931F93CF93DF936C01C3
:100520007C0187E0E80EF11CD0E0C0E0062F10E06F
:10053000B8010C2E02C0759567950A94E2F76170B8
:10054000F70181917F010E9499012196C430D10564
:1005500079F7C601DF91CF911F910F91FF90EF9036
:10056000DF90CF900C947102CF92DF92EF92FF92C6
:100570000F931F93CF93DF93EC01F62E642F8C81A2
:100580000E9499018D818F3F19F060E00E949901CE
:100590000F2D10E08F8584FF25C06E0187E0C80E07
:1005A000D11CF12CE12CB8010E2C02C07595679579
:1005B0000A94E2F76170F60181916F010E9499013E
:1005C000FFEFEF1AFF0A88E0E816F10461F7CE01A9
:1005D000DF91CF911F910F91FF90EF90DF90CF901F
:1005E0000C947102B80184E0759567958A95E1F7DE
:1005F000CE010E9487026F2DCE01DF91CF911F9116
:100600000F91FF90EF90DF90CF900C94870240E025
:10061000682F8EEE91E00C94B402CF93DF9382307A
:1006200029F49091FD0198609093FD01809301025F
:100630001092020280E48093030280E1809304021E
:1006400080E58093050261E08091F2010E94E5015E
:100650008091F3018F3F19F061E00E94E50161E0B4
:100660008091F4010E94E501CEEED1E09E012E5E64
:1006700031408091FD0184FD0BC084E090E0219623
:100680002817390744F461E08E810E94E501EECF1E
:1006900088E090E0F4CF8BE39DE00197F1F760E014
:1006A0008091F2010E94990160E08091F4010E9422
:1006B00099018091F3018F3F19F060E00E94990148
:1006C0008091FD0184FD39C063E08EEE91E00E94CF
:1006D0008702CBE4D6E4CE010197F1F763E08EEE1A
:1006E00091E00E9487022197F1F763E08EEE91E09E
:1006F0000E94870283E592E00197F1F762E08EEEB7
:1007000091E00E9487028091FD0180620E940703B0
:1007100084E08093FE018CE00E94070381E00E9448
:1007200007038BE39FE10197F1F782E08093FF01DC
:1007300086E0DF91CF910C94070380620E9407034B
:100740008BE496E40197F1F78091FD0180620E94AD
:10075000070383E592E00197F1F78091FD01806244
:100760000E940703D0CF90910102691710F06FEF3C
:10077000690FE62FF0E0E251FE4F9489890F8068FF
:100780000C94070341E00E94B40281E090E00895D8
:10079000FB0101900020E9F73197AF01461B570B91
:1007A000DC01ED91FC910280F381E02D09944F92E0
:1007B0005F926F927F92AF92BF92CF92DF92EF9251
:1007C000FF920F931F93CF93DF93CDB7DEB7A1971F
:1007D0000FB6F894DEBF0FBECDBF5C016A017B018E
:1007E000F7FE47C0DC01ED91FC910190F081E02D16
:1007F0006DE209958C0122273327A9012C193D09A7
:100800004E095F0919A2FE01B1967F019AE0492EB7
:10081000512C612C712CCA01B901A30192010E94D3
:100820003908605DD7016E937D01211531054105C1
:10083000510589F790E080E0109721F0BD01C501D6
:100840000E94C803800F911FA1960FB6F894DEBFD7
:100850000FBECDBFDF91CF911F910F91FF90EF9011
:10086000DF90CF90BF90AF907F906F905F904F9050
:100870000895AB01960119A28E010F5D1F4F8AE00A
:10088000C82ED12CE12CF12CCA01B901A701960187
:100890000E943908605DF80162938F0121153105CE
:1008A0004105510589F790E080E0309769F2BF017A
:1008B000C5010E94C803C8CF1F920F920FB60F92B6
:1008C00011242F933F934F935F936F937F938F9355
:1008D0009F93AF93BF93EF93FF9381E591E00E94C5
:1008E0000A01FF91EF91BF91AF919F918F917F91FD
:1008F0006F915F914F913F912F910F900FBE0F908D
:100900001F9018951F920F920FB60F9211242F93DC
:100910008F939F93EF93FF93E0916101F0916201B8
:100920008081E0916701F091680182FD1BC0908198
:1009300080916A018F5F8F7320916B01821741F064
:10094000E0916A01F0E0EF5AFE4F958F80936A01C3
:10095000FF91EF919F918F912F910F900FBE0F906C
:100960001F9018958081F4CF1F920F920FB60F92AF
:1009700011242F933F938F939F93AF93BF938091B5
:10098000410190914201A0914301B0914401309105
:10099000400123E0230F2D3758F50196A11DB11D0D
:1009A000209340018093410190934201A093430121
:1009B000B09344018091450190914601A091470177
:1009C000B09148010196A11DB11D809345019093FE
:1009D0004601A0934701B0934801BF91AF919F9109
:1009E0008F913F912F910F900FBE0F901F901895F0
:1009F00026E8230F0296A11DB11DD2CFCF92DF9220
:100A0000EF92FF920F931F93E82FF92F05C001502B
:100A100011092109310961F1908196239417B9F3E5
:100A200005C0015011092109310911F19081962366
:100A30009413F7CFC12CD12CE12CF12C0AC08FEFED
:100A4000C81AD80AE80AF80A0C151D052E053F0534
:100A500079F080818623841791F36C2D7D2D8E2D66
:100A60009F2D1F910F91FF90EF90DF90CF900895F1
:100A700060E070E080E090E01F910F91FF90EF90B8
:100A8000DF90CF900895E1E5F1E01382128288EEC5
:100A900093E0A0E0B0E084839583A683B78384E0ED
:100AA00091E09183808385EC90E09587848784EC46
:100AB00090E09787868780EC90E0918B808B81EC2B
:100AC00090E0938B828B82EC90E0958B848B86EC0C
:100AD00090E0978B868B118E128E138E148EEEEE15
:100AE000F1E01382128286E191E0918380838CE0B1
:100AF00084838FEF85838BE0868385E0878384E022
:100B0000808783E0818782E082871386148615863A
:100B10001686178681E00C940D03789484B5826064
:100B200084BD84B5816084BD85B5826085BD85B591
:100B3000816085BD80916E00816080936E0010920F
:100B4000810080918100826080938100809181008A
:100B5000816080938100809180008160809380001B
:100B60008091B10084608093B1008091B000816079
:100B70008093B00080917A00846080937A008091A5
:100B80007A00826080937A0080917A0081608093FD
:100B90007A0080917A00806880937A001092C10078
:100BA00082E00E940D03E0916101F091620182E018
:100BB0008083E0915D01F0915E011082E0915F0120
:100BC000F09160018FEC808310926901E0916501E2
:100BD000F091660186E08083E0916301F091640109
:100BE000808180618083E0916301F0916401808164
:100BF00088608083E0916301F09164018081806866
:100C00008083E0916301F091640180818F7D808316
:100C100061E08AE00E94E50160E089E00E94E50170
:100C200060E082E00E94B3036EE171E08EEE91E03D
:100C30000E94C80368E873E180E090E00E943B02F4
:100C400081E00E9407038BE39FE10197F1F7CFE07A
:100C5000D0E043E2A42EB12C53EA252E50E0352EED
:100C600064E9462E512C612C712C70E0872E70E0C7
:100C7000972E60E08AE00E949901CE010197F1F77A
:100C800061E08AE00E949901C5010197F1F760E0F7
:100C90008AE00E94990160E089E00E94E501E7EBAB
:100CA000F0E06491F1018491E82FF0E0EE0FFF1F76
:100CB000E057FF4F8591949100E412E42FE030E07B
:100CC000462F0E94FE046B017C01C114D104E10493
:100CD000F10439F0FFEFCF1ADF0AEF0AFF0A8FE0C5
:100CE000F822C701B60195958795779567950E947B
:100CF000AD072DEC3CEC48EE51E40E9403070E9446
:100D0000750760934D0170934E0180934F0190934E
:100D10005001C701B601A30192010E945B08BA010C
:100D2000A9014093490150934A0160934B0170938C
:100D30004C0181E591E00E94D7036AE271E081E510
:100D400091E00E94C80340914D0150914E01609185
:100D50004F017091500181E591E00E94D7036FE24D
:100D600071E081E591E00E94C80362E371E081E5F2
:100D700091E00E94C8036AEF70E080E090E00E947A
:100D80003B0260E080E00E94B30365E371E08EEE19
:100D900091E00E94C80360E08AE00E94B3034091A2
:100DA000490150914A0160914B0170914C018EEEC6
:100DB00091E00E94D7036AE271E08EEE91E00E941A
:100DC000C80361E08AE00E94B30340914D01509155
:100DD0004E0160914F01709150018EEE91E00E94A2
:100DE000D7036FE271E08EEE91E00E94C803811498
:100DF000910409F43ECF0E94F600882309F439CF0C
:100E00000E94000036CF0E9417070C94FF070E9433
:100E1000F80758F00E94F10740F029F45F3F29F0ED
:100E20000C94E80751110C9433080C94EE070E94BF
:100E3000100868F39923B1F3552391F3951B550BD3
:100E4000BB27AA2762177307840738F09F5F5F4F9D
:100E5000220F331F441FAA1FA9F335D00E2E3AF0DC
:100E6000E0E832D091505040E695001CCAF72BD0F4
:100E7000FE2F29D0660F771F881FBB1F2617370745
:100E80004807AB07B0E809F0BB0B802DBF01FF2777
:100E900093585F4F3AF09E3F510578F00C94E80765
:100EA0000C9433085F3FE4F3983ED4F3869577952E
:100EB0006795B795F7959F5FC9F7880F911D969530
:100EC000879597F90895E1E0660F771F881FBB1F8C
:100ED000621773078407BA0720F0621B730B840B39
:100EE000BA0BEE1F88F7E09508950E947C0768947E
:100EF000B1110C94330808950E94180888F09F5788
:100F000098F0B92F9927B751B0F0E1F0660F771F2D
:100F1000881F991F1AF0BA95C9F714C0B13091F023
:100F20000E943208B1E008950C943208672F782FA0
:100F30008827B85F39F0B93FCCF3869577956795E8
:100F4000B395D9F73EF490958095709561957F4F54
:100F50008F4F9F4F0895E89409C097FB3EF49095FA
:100F60008095709561957F4F8F4F9F4F9923A9F082
:100F7000F92F96E9BB279395F69587957795679511
:100F8000B795F111F8CFFAF4BB0F11F460FF1BC055
:100F90006F5F7F4F8F4F9F4F16C0882311F096E9E8
:100FA00011C0772321F09EE8872F762F05C0662396
:100FB00071F096E8862F70E060E02AF09A95660F4F
:100FC000771F881FDAF7880F9695879597F9089508
:100FD00097F99F6780E870E060E008959FEF80ECEC
:100FE000089500240A94161617061806090608958F
:100FF00000240A9412161306140605060895092EF5
:101000000394000C11F4882352F0BB0F40F4BF2B63
:1010100011F460FF04C06F5F7F4F8F4F9F4F0895A3
:1010200057FD9058440F551F59F05F3F71F0479599
:10103000880F97FB991F61F09F3F79F0879508957E
:10104000121613061406551FF2CF4695F1DF08C09D
:10105000161617061806991FF1CF869571056105BA
:1010600008940895E894BB2766277727CB0197F962
:101070000895A1E21A2EAA1BBB1BFD010DC0AA1FD9
:10108000BB1FEE1FFF1FA217B307E407F50720F0F1
:10109000A21BB30BE40BF50B661F771F881F991F6C
:1010A0001A9469F760957095809590959B01AC01B5
:1010B000BD01CF010895052E97FB1EF400940E94F8
:1010C000720857FD07D00E94390807FC03D04EF480
:1010D0000C94720850954095309521953F4F4F4F95
:1010E0005F4F089590958095709561957F4F8F4FD4
:1010F0009F4F0895EE0FFF1F0590F491E02D099486
:04110000F894FFCF91
:10110400000000002C018C00B9007901EA00C8003D
:10111400DC0000000000C2038C006E026D02484532
:101124004C4C4F20574F524C4400696E2C200063A6
:101134006D000D0A0044697374616E63653A0000C2
:00000001FF
